:10000000D0C00000F9C00000F7C00000F5C000003B
:10001000F3C00000F1C00000EFC00000EDC0000020
:10002000EBC00000E9C000000C94E00B0C945A0AED
:10003000E3C00000E1C00000DFC00000DDC0000040
:10004000DBC00000D9C00000D7C00000D5C0000050
:10005000D3C00000D1C00000CFC000000C94A109A3
:10006000CBC00000C9C00000C7C00000C5C0000070
:10007000C3C00000C1C00000BFC00000BDC0000080
:1000800098C50000B9C00000B7C00000B5C00000AE
:10009000B3C00000B1C0000000010000CC0012009D
:1000A000020000DE004300030000210104010309F7
:1000B00004250118020309043F011603030904572C
:1000C000010C0001C10201803601813612010002DB
:1000D00002000020C016830400010102030109028E
:1000E0004300020100C032090400000102020100C5
:1000F0000524001001052401000104240206052442
:100100000600010705820308004009040100020AF5
:1001100000000007050302400000070584024000BC
:10012000000403090418035400650065006E0073A1
:100130000079006400750069006E006F0000001611
:10014000035500530042002000530065007200690F
:100150000061006C0000000C0331003200330034F9
:100160000035000000494E46494E4954594E414E13
:10017000CDCCCC3D0AD7233C17B7D13877CC2B3226
:100180009595E6241FB14F0A000020410000C842A7
:1001900000401C4620BCBE4CCA1B0E5AAEC59D7406
:1001A0007D0F11241FBECFEFD0E2DEBFCDBF13E025
:1001B000A0E0B1E0EAE7F5E200E00BBF02C0079083
:1001C0000D92A034B107D9F71BBE14E0A0E4B3E050
:1001D00001C01D92A038B107E1F711E0C2EAD1E0F9
:1001E00004C02297FE010E944E12C03AD107C9F7FF
:1001F0000E945E0C0C94BB1203CFA0E0B0E0E3E0E1
:10020000F1E00C948A12EC015B016115710519F0A3
:10021000FB0191838083F9908F2D90E00E94521210
:10022000892BC9F7FDE2FF1621F4F990EE24E3943F
:1002300005C02BE2F21609F4F990EE248E0101506C
:100240001040C80165E671E043E050E062D2892BBE
:10025000F9F48E010E5F1F4FC80168E671E045E0BA
:1002600050E057D2892B19F48E01095F1F4FA1145A
:10027000B10419F0F50111830083E0FC04C070E0C3
:1002800090E080E813C070E090E080E86FEF07C175
:10029000C8016DE671E043E050E03BD2892B69F480
:1002A000A114B10429F470E090E080EC6FE7F7C08E
:1002B0002296F501D183C083F6CF8824992440E0AB
:1002C00050E060E070E0EF2DE053EA30A0F5F2E09E
:1002D000EF2A8E2D90E09C0128703070E2FE06C05F
:1002E000232B79F50894811C911C2BC0232B19F02A
:1002F000089481089108DB01CA0112E0880F991F58
:10030000AA1FBB1F1A95D1F7480F591F6A1F7B1FE1
:10031000440F551F661F771F4E0F511D611D711D24
:10032000483929E9520729E9620729E1720748F0AB
:1003300084E0E82A06C0EE3F31F4E3FC39C098E0DF
:10034000E92AF990C0CFE53311F0E53189F529911B
:100350002D3219F4E0E1EE2A05C02B3219F081E0CC
:1003600090E003C0299182E090E0E22FE053EA3070
:1003700018F0C81BD90B1CC020E030E0FCE020388E
:100380003F075CF4C901880F991F880F991F280F38
:10039000391F220F331F2E0F311DE991E053EA3030
:1003A00068F3E4FE03C0309521953F4F820E931E03
:1003B000CE2CDD24E1FE07C0A114B10421F0219769
:1003C000F501D183C083CB01BA010E94EA107B0101
:1003D0008C01F3E0CF22DD2423E0C216D10421F406
:1003E00017FB109517F9109557016801C801B7015F
:1003F00020E030E040E050E00E945210882309F4F1
:100400004AC097FE0DC024E8E22E21E0F22E90941F
:10041000819491089394C0E2D0E000E010E012C013
:100420009CE9E92E91E0F92EF6CFF701259135915F
:1004300045915491C601B5010E94A0115B016C0168
:100440008C1A9D0A8C169D0684F7D595C7950F5F6B
:100450001F4F0630110529F08CEF9FEFE80EF91EB3
:10046000F1CFC501D6017C018D018C2D880F8D2D1A
:10047000881F8F3F51F0C601B50120E030E040E019
:1004800050E00E945210882331F482E290E0909371
:100490007F0480937E047E2D9F2D802F612F272F38
:1004A000392F482F562FB901CA01CDB7DEB7ECE07E
:1004B0000C94A6122F923F925F926F927F928F922E
:1004C0009F92AF92BF92CF92DF92EF92FF920F93E3
:1004D0001F93CF93DF938C011B01EA016115710516
:1004E00019F0FB0191838083209749F0CE01029798
:1004F000839728F020E030E040E050E0F6C0F801BB
:10050000A1908F018A2D90E00E945212892BB9F799
:10051000FDE2AF1631F4F801A1908F0155245394F8
:1005200007C0FBE2AF1619F4F801A1908F01552422
:10053000209719F0C031D105C1F4F0E3AF1679F47A
:10054000F8018081883711F0883549F4F801A180DD
:100550000E5F1F4FF2E05F2AC0E1D0E006C0209797
:1005600021F480E3A816E9F427C0C830D10531F1A1
:10057000C930D10524F4C230D10531F50CC0CA30E0
:10058000D10589F0C031D105F9F4C12CD12CE12C71
:10059000B8E0FB2E28C0C12CD12CE12CA0E4FA2E0F
:1005A00022C0CAE0D0E0FCECCF2EFCECDF2EFCEC4D
:1005B000EF2EFCE0FF2E17C0C8E0D0E0C12CD12CFC
:1005C000E12CE0E1FE2E0FC09E01442737FD40954F
:1005D000542F60E070E080E090E80E941612C9019C
:1005E000DA016C017D0120E030E040E050E060E0A5
:1005F0003E01882477FC8094982C70EDB72EBA0CBD
:10060000E9E0EB1570F48A2D81548A3118F499ECE5
:10061000B92E06C08A2D81568A3150F589EAB82E46
:10062000BA0C8B2D90E08C179D0714F56F3FE1F00D
:10063000C216D306E406F506B0F0CA01B901A4015A
:1006400093010E9465129B01AC012B0D311D411DD0
:10065000511D2130F0E03F07F0E04F07F0E85F0761
:1006600010F461E001C06FEFF801A1908F01C5CFD8
:100670002114310481F0662331F001501040F10162
:100680001183008308C051FE1AC002501040F101CE
:100690001183008314C067FF12C050FC05C02FEF08
:1006A0003FEF4FEF5FE704C020E030E040E050E86C
:1006B00082E290E090937F0480937E0416C050FE07
:1006C00008C050954095309521953F4F4F4F5F4F53
:1006D0000CC057FF0AC082E290E090937F048093A1
:1006E0007E042FEF3FEF4FEF5FE7B901CA01DF91C3
:1006F000CF911F910F91FF90EF90DF90CF90BF901F
:10070000AF909F908F907F906F905F903F902F90D1
:100710000895FB01DC014150504088F08D918134F7
:100720001CF08B350CF4805E659161341CF06B35E8
:100730000CF4605E861B611171F3990B0895881BA0
:10074000FCCF21E08130920714F080E091E090939B
:100750001703809316038091160390911703079651
:1007600068E070E00E940312709315036093140315
:1007700008957F928F929F92AF92BF92CF92DF9215
:10078000EF92FF920F931F93DF93CF93CDB7DEB716
:100790002F970FB6F894DEBF0FBECDBF6091100348
:1007A00070911103809112039091130320E034E2C1
:1007B00044E75BE40E94A01120E030E04AE754E403
:1007C0000E9456104B015C01DE011696E6E2F3E052
:1007D0008AE001900D928150E1F7DE011196E1E28D
:1007E000F3E085E001900D928150E1F78E010A5F00
:1007F0001F4FCC24DD24F80160817181882777FDAB
:100800008095982F0E94EC109B01AC01C501B401AA
:100810000E94561020E03FEF4FE757E40E9452102D
:1008200018164CF40894C11CD11C0E5F1F4FF5E044
:10083000CF16D10401F77FB6F89410929000109271
:10084000920088E080939100F601EE0FFF1FEC0FFD
:10085000FD1F66817781882777FD8095982F0E94FC
:10086000EC109B01AC01C501B4010E94561020E0C0
:1008700030E040E05FE30E94EE0F7B018C0120E05E
:100880003FEF4FE757E40E94521087FD03C06FEF20
:100890007FEF04C0C801B7010E94BE107093990099
:1008A0006093980080919100CC0EDD1EF60191813D
:1008B000892B809391007FBE2F960FB6F894DEBFF0
:1008C0000FBECDBFCF91DF911F910F91FF90EF90A1
:1008D000DF90CF90BF90AF909F908F907F900895C2
:1008E000EF92FF920F931F937B018C0120E030E089
:1008F00040EA50E40E94521088235CF40F2EF0E08E
:10090000EF2EF0E0FF2EF0EA0F2FF0E41F2FF02D76
:1009100014C0C801B70120E030E04AE755E40E9466
:100920009C11181654F40F2EF0E0EF2EF0E0FF2E7D
:10093000FAE70F2FF5E41F2FF02DE0921003F0924D
:100940001103009312031093130313DF1F910F91F0
:10095000FF90EF9008959C0197FD51C08091160380
:1009600090911703281739070CF049C045C0E09152
:100970001403F09115033197C90168E070E00E94FB
:100980000312E61BF70BE05CFC4FC90168E070E066
:100990000E94031221E030E040E050E004C0220F4A
:1009A000331F441F551F8A95D2F78081822B808385
:1009B0000895E0911403F09115033197C90168E09F
:1009C00070E00E940312E61BF70BE05CFC4FC901CC
:1009D00068E070E00E94031221E030E040E050E067
:1009E00004C0220F331F441F551F8A95D2F720954C
:1009F00080812823208308956623D9F2B8CF0895F3
:100A0000DF92EF92FF920F931F93CF93DF93E090CB
:100A10001603F09017030894E108F1088091600331
:100A2000909161030196B7010E94031290936103B4
:100A3000809360038091620390916303039709F4AC
:100A400090C080916203909163030297C1F58091F9
:100A5000600390916103892BD1F020916003309164
:100A60006103C70163E070E00E9403122617370795
:100A700071F02091600330916103C701880F991FC5
:100A800063E070E00E9403122617370729F4809173
:100A900019038095809319034091190320E030E0F9
:100AA00006C0F901E05CFC4F40832F5F3F4F80910F
:100AB000140390911503281739079CF352C08091B5
:100AC000620390916303DD24892B21F4DD24D39408
:100AD00040E001C04FEF20E030E006C0F901E05CEB
:100AE000FC4F40832F5F3F4F80911403909115037B
:100AF000281739079CF320E030E001E010E02AC01D
:100B0000C801820F931FB7010E940312EC0128173E
:100B1000390744F480916003909161038217930731
:100B200094F007C08091600390916103821793074E
:100B30003CF480916003909161038C179D071CF435
:100B4000C8016D2D08DFCE01B7010E9403129C0180
:100B50000F5F1F4F80911603909117030817190715
:100B60007CF2DF91CF911F910F91FF90EF90DF907A
:100B700008954091140350911503289820E030E027
:100B800097EC10C09EBD0DB407FEFDCF8EB5F901E8
:100B9000E05CFC4F80818EBD0DB407FEFDCF8EB5AD
:100BA0002F5F3F4F241735076CF3289A0895E1DF34
:100BB00027CF1F920F920FB60F920BB60F921124F0
:100BC0002F933F934F935F936F937F938F939F9355
:100BD000AF93BF93EF93FF93EADFFF91EF91BF9144
:100BE000AF919F918F917F916F915F914F913F91C5
:100BF0002F910F900BBE0F900FBE0F901F90189566
:100C00000F931F93DF93CF9300D0CDB7DEB79A83B6
:100C100089838C01BE016F5F7F4F40E050E04ADC6A
:100C20009B01AC0189819A818017910711F481E0C1
:100C300003C0C90186DD80E00F900F90CF91DF9156
:100C40001F910F910895CF93DF93DB010D9000204A
:100C5000E9F71197A61BB70BEC01E881F981028037
:100C6000F381E02DAD010995DF91CF910895EF92C9
:100C7000FF920F931F937C01E6DF8C01C70122D600
:100C80009C01200F311FC9011F910F91FF90EF9020
:100C900008958F929F92AF92BF92CF92DF92EF9280
:100CA000FF920F931F93DF93CF9300D0CDB7DEB7A2
:100CB0009A8389836C01AA24BB244E010894811C69
:100CC000911C37C089819A81B40140E050E0F2DB89
:100CD0007B018C0129813A812C153D0571F18FEF43
:100CE000E816F1040105110581F07CF084E794E039
:100CF00060E071E0A8DF84E794E0B801A70189D63D
:100D000084E794E06AE571E025C080911403909136
:100D100015038A159B052CF484E794E06DE571E0DA
:100D200019C0F501E05CFC4FE0820894A11CB11CE5
:100D30006901F6018081882329F68091140390913E
:100D40001503A816B90614F080E006C084E794E005
:100D500060E971E08CDF81E00F900F90CF91DF911F
:100D60001F910F91FF90EF90DF90CF90BF90AF90C9
:100D70009F908F90089584E794E064EC71E077CFC2
:100D80000F931F93DF93CF9300D0CDB7DEB79A8335
:100D900089838C01BE016F5F7F4F2FDA9B01AC010D
:100DA00089819A818017910711F481E004C0CA01FA
:100DB000B90196DD80E00F900F90CF91DF911F91E8
:100DC0000F9108950F93CF93DF9384E794E061EE42
:100DD00071E039DFC0E0D0E012C084E794E060EF5A
:100DE00071E031DFFE01E05CFC4F408150E060E0EB
:100DF00070E084E794E020E100E080D521968091C6
:100E0000140390911503C817D9073CF384E794E0C5
:100E100059D5DF91CF910F910895FF920F931F93B2
:100E2000CF93DF938C0102C00F5F1F4FF8018081C9
:100E3000C82FDD27C7FDD095CE010E945212892B05
:100E400099F7FFB6F894CE010E945A128E3491059C
:100E5000E1F18F349105E4F48834910509F422C15D
:100E60008934910564F48334910509F4E9C086342A
:100E7000910509F47EC0CF9709F035C113C18C34B8
:100E8000910509F407C18D34910509F02CC19BC06F
:100E90008235910509F481C0833591054CF48F3476
:100EA000910509F4A6C08135910509F01CC1EFC078
:100EB0008435910509F43AC0843591050CF4F4C0E9
:100EC0008635910509F00FC1F1C0C801019698DE81
:100ED000182F882309F00FC180911803882309F483
:100EE0000AC184E794E062EF71E0ADDE4091160341
:100EF00050911703662757FD6095762F84E794E09D
:100F000088D584E794E062E072E09DDE40911403AE
:100F100050911503662757FD6095762F84E794E07E
:100F200078D584E794E06EE072E021C0C8010196B4
:100F300027DF182F882309F0DEC08091180388234B
:100F400009F4D9C084E794E066E172E07CDE409168
:100F5000100350911103609112037091130384E701
:100F600094E022E067D584E794E06DE272E07FDEF2
:100F7000C2C010926303109262038091710082607C
:100F800080937100789480911803882309F4B2C08B
:100F900084E794E061E372E078C081E090E09093B0
:100FA000630380936203809171008260809371007B
:100FB000789480911803882309F49CC084E794E016
:100FC00066E472E062C082E090E0909363038093F5
:100FD00062038091710082608093710078948091A7
:100FE0001803882309F486C084E794E06BE572E077
:100FF0004CC0809171008D7F8093710083E090E000
:10100000909363038093620320E030E04FEF06C0CB
:10101000F901E05CFC4F40832F5F3F4F8091140348
:1010200090911503281739079CF3A3DD80911803CD
:10103000882309F45FC084E794E066E672E025C087
:10104000809171008D7F8093710083E090E0909398
:1010500063038093620320E030E006C0F901E05CA6
:10106000FC4F10822F5F3F4F809114039091150326
:10107000281739079CF37DDD80911803882309F434
:1010800039C084E794E06FE772E0F1DD33C010927D
:10109000180330C081E08093180384E794E06AE984
:1010A00072E0F3CF68DE26C08DDE24C0809171002F
:1010B0008D7F8093710083E090E090936303809331
:1010C0006203C8010196E5DD182F8823A1F451DDE4
:1010D00080911803882379F084E794E06DEA72E048
:1010E000B2DD70DE08C084E794E062EB72E0BFDD41
:1010F00011E001C010E0FFBE812FDF91CF911F9161
:101100000F91FF9008951F931092660433C0809151
:101110006403909165031816190664F51A3011F0EE
:101120001D30D9F4E0916403F0916503EA59FC4F56
:101130001082109265031092640386E693E06DDEE0
:101140008823C1F084E794E067EC72E07CDD84E7FB
:1011500094E066E673E08BDD0DC0809164039091AE
:101160006503FC01EA59FC4F1083019690936503D7
:101170008093640384E794E029D5892B31F1809131
:101180006403909165038F3F910509F0F4F484E7BF
:1011900094E055D5182F992787FD90950E945212FB
:1011A000892B09F0B4CFBACF84E794E065EF72E001
:1011B0004ADD1092660484E794E066E673E057DD4A
:1011C000109265031092640308C0809164039091AB
:1011D00065038F3F910509F03CF71F91089593CF68
:1011E00008951F93CF93DF93F89480E88093610074
:1011F00010926100209A289A4CD081E057D084E068
:101200005ED0E0E4F3E0119283E0E036F807D9F72E
:10121000789484E794E040E855E260E070E08BD693
:10122000A8DAC0E0D0E01FEF2DC0F901E05CFC4F70
:1012300010832F5F3F4F809114039091150328175F
:1012400039079CF396DC64EF71E080E090E0B9D060
:1012500020E030E006C0F901E05CFC4F10822F5F17
:101260003F4F8091140390911503281739079CF381
:1012700080DC64EF71E080E090E0A3D02196C33081
:10128000D10519F020E030E0D6CFDF91CF911F914A
:101290000895219A229A209A29982A98289A8CB5FA
:1012A00080618CBD8CB580648CBD0895882319F451
:1012B0008CB5806202C08CB58F7D8CBD08959CB5C5
:1012C000937F982B9CBD08951DBA109268001CBC9A
:1012D00010BE1FBA10927A0010926E0010926F002A
:1012E00010927000109271001092C9001092BC0010
:1012F00011B814B817B81AB81DB810BA12B815B882
:1013000018B81BB81EB811BA0895F89480E29EE48C
:101310000197F1F781E08093E00080E28093D800AC
:1013200080E69AEE0197F1F7CFDF0C9400FEFFCF35
:10133000F894CADF80E69AEE0197F1F70C9400006A
:10134000FFCF8F938FB78F9380916F048D5F8D3711
:10135000D0F480936F0480916B048F5F80936B0453
:10136000D8F080916C048F4F80936C04A8F080912A
:101370006D048F4F80936D0478F080916E048F4FD1
:1013800080936E0409C08D5780936F0480916B0425
:101390008E5F80936B0428F7809167048C5F809345
:1013A000670458F0809168048F4F8093680428F098
:1013B000809169048F4F809369048F918FBF8F91C3
:1013C00018959B01AC0114D0FB010CC011D06E1B11
:1013D0007F0B685E7340D0F3215030404040504056
:1013E000E851FC4F211531054105510579F7089564
:1013F0000FB6F89466B515B27091670480916804D1
:10140000909169040FBE10FE05C06F3F19F07C5F1C
:101410008F4F9F4F11240024660F001C660F001C85
:1014200070290895F894E1E6F0E020E82083108226
:1014300083E084BD85BDEEE6F0E08081816080833D
:1014400091E09093800082E0809381009093B000BF
:101450008093B100909390008093910086E88093F0
:101460007A0020937B0010927E0002D07894089539
:101470008091D80087FF02C085FF1BC081E8809360
:10148000D70080EA8093D80086E189BD09B400FEC8
:10149000FDCF80E98093D8001092E0001092800484
:1014A00010928104109273041092E1008DE08093F9
:1014B000E20008951F920F920FB60F920BB60F9293
:1014C00011242F933F934F935F936F937F938F9349
:1014D0009F93AF93BF93EF93FF931092E900809196
:1014E000E80083FF57C12091F1009091F1004091F5
:1014F000F1005091F1006091F1007091F100A09124
:10150000F100B091F10082EF8093E800963009F08D
:1015100044C0E8E9F0E020E08591959184179507B3
:1015200011F0359617C0859195918617970711F0A0
:10153000339610C0259135914491CD01AF3FB1054F
:1015400019F010F08FEF90E0841708F4482FF9019C
:101550005EEF04C02F5F2630F9F61CC18091E800D1
:10156000282F30E0C90185709070892BB9F322FDD6
:1015700014C1242F413208F020E2922F04C085913B
:101580008093F10091509923D1F7421B5093E800CA
:10159000442321F7203211F300C1953061F48EEF1E
:1015A0008093E8008091E80080FFFCCF842F806862
:1015B0008093E300F2C0993009F5222309F0EAC0D4
:1015C0004093800410927304109270048EEF809305
:1015D000E800E2ECF0E091E09093E90085918093DF
:1015E000EB00882331F085918093EC008591809306
:1015F000ED009F5F953081F78EE1C7C0983061F4B0
:10160000203809F0C7C08091E80080FFFCCF8091AE
:1016100080048093F10096C09132A9F4213A09F038
:10162000B9C08091E80080FFFCCF20E030E0F901F4
:10163000E65EFC4F80818093F1002F5F3F4F2730A3
:101640003105A9F77FC0903209F04BC0213209F073
:10165000A1C08091E80082FFFCCF20E030E0F901DA
:10166000E65EFC4F8091F10080832F5F3F4F273073
:101670003105A9F78BEF8093E8008EEF8093E800A7
:1016800080911A0390911B03A0911C03B0911D033C
:1016900086389105A105B10519F48FE08093710496
:1016A00080911A0390911B03A0911C03B0911D031C
:1016B00086399105A105B10509F06FC084E08093DA
:1016C000E9002FEF06C02093E8008091E80082FD3A
:1016D000FCCF8091EE0090E083709070892B99F799
:1016E00027DE923251F4213209F054C04093730442
:1016F0008091E80080FFFCCF25C0933241F4213275
:1017000009F048C08091E80080FFFCCF1BC09923FE
:10171000E9F48091E80080FFFCCF223811F080E0EE
:101720000DC06093E9008091EB0090E025E0969574
:1017300087952A95E1F781701092E9008093F10076
:101740001092F1008EEF8093E80027C0913011F0E5
:10175000933001F52230F1F4452BE1F4262F2F7759
:10176000822F81508630B0F48EEF8093E800209372
:10177000E900933079F089E18093EB0081E090E01B
:1017800002C0880F991F2A95E2F78093EA00109211
:10179000EA0003C081E28093EB00FF91EF91BF91DB
:1017A000AF919F918F917F916F915F914F913F91F9
:1017B0002F910F900BBE0F900FBE0F901F9018959A
:1017C0001F920F920FB60F920BB60F9211242F9308
:1017D0003F934F935F936F937F938F939F93AF93B9
:1017E000BF93EF93FF938091E1001092E100982F57
:1017F00083FF11C01092E90081E08093EB0010920A
:10180000EC0082E28093ED0088E08093F00010927B
:1018100080041092730492FF1DC08091800488237D
:10182000C9F080917004882359F08150809370042E
:10183000882331F484E08093E9008AE38093E80010
:1018400080917104882331F0815080937104882342
:1018500009F45BDD90FF0CC080E18093E200109200
:10186000800481E08093810480EA8093D80019BCD1
:1018700080918104882379F094FF0DC086E189BDB1
:1018800009B400FEFDCF80E98093D8008DE08093FD
:10189000E20010928104FF91EF91BF91AF919F916F
:1018A0008F917F916F915F914F913F912F910F9009
:1018B0000BBE0F900FBE0F901F901895B3DD91DCFB
:1018C0008EDCFECFDF93CF9300D0CDB7DEB7DC0147
:1018D0008DE089838AE08A83ED91FC9111970280E3
:1018E000F381E02DCD01BE016F5F7F4F42E050E0FC
:1018F00009950F900F90CF91DF9108954F925F92CD
:101900006F927F928F929F92AF92BF92CF92DF920F
:10191000EF92FF920F931F93DF93CF93CDB7DEB774
:10192000A1970FB6F894DEBF0FBECDBF3C016A0190
:101930007B01222349F4DC01ED91FC910190F081BF
:10194000E02D642F09954EC0213009F42AE0C1141E
:10195000D104E104F10421F480E389A310E227C05B
:1019600010E2822E9924AA24BB242E010894411C43
:10197000511CC701B601A501940158D56A3010F475
:10198000605D01C0695CF201E10FF11D6083C70178
:10199000B601A50194014AD5C901DA016C017D01A6
:1019A000C114D104E104F10411F01150E2CF00237D
:1019B00031F01150FE01E10FF11D8DE28183812F85
:1019C00090E0D301ED91FC91BE016F5F7F4F680FF6
:1019D000791F41E250E0481B590B0280F381E02D52
:1019E000C3010995A1960FB6F894DEBF0FBECDBF17
:1019F000CF91DF911F910F91FF90EF90DF90CF90EB
:101A0000BF90AF909F908F907F906F905F904F901E
:101A100008950F9377FD02C000E008C070956095AF
:101A2000509541955F4F6F4F7F4F0DE22AE066DF83
:101A30000F9108953F924F925F926F927F928F9293
:101A40009F92AF92BF92CF92DF92EF92FF920F934D
:101A50001F93DF93CF93CDB7DEB728970FB6F894D7
:101A6000DEBF0FBECDBF3C017A018B01522ECB01F0
:101A7000BA0120E030E040E050E014D387FD02C01E
:101A8000442406C017FB109517F91095442443947D
:101A900020E030E040E05FE3DD240AC0CA01B90184
:101AA0002DEC3CEC4CEC5DE34BD49B01AC01D394AE
:101AB000D514A0F3C801B70191D24B015C015ED3EC
:101AC0006B017C01C301B701A6012AE0042D16DFDA
:101AD000482E392E552009F447C0C701B6017AD3E4
:101AE0009B01AC01C501B40178D29B01AC018EE22F
:101AF0008983D52C87E0851510F487E0D82EBD2C7E
:101B0000CC24C3944E010894811C911C1FC0CA01AF
:101B1000B90120E030E040E251E412D47B018C01B5
:101B20002DD3F401EC0DF11D605D60836053C3940F
:101B300070E0882777FD8095982F4ED39B01AC01EC
:101B4000C801B7014AD29B01AC01BA94BB20F9F697
:101B5000D301ED91FC91D3940280F381E02DC30178
:101B6000B4014D2D50E00995842D932D28960FB684
:101B7000F894DEBF0FBECDBFCF91DF911F910F91C3
:101B8000FF90EF90DF90CF90BF90AF909F908F909D
:101B90007F906F905F904F903F900895DF93CF9329
:101BA0000F92CDB7DEB7FC016983A081B181129697
:101BB0002D913C911397BE016F5F7F4F41E050E044
:101BC000F90109950F90CF91DF910895FC019FB71E
:101BD000F89480918004882311F420E010C083E001
:101BE0008093E9002091F200222349F48091E800DB
:101BF00082FF05C085FD03C08BE68093E8009FBF90
:101C00008085918597FD03C02F3F09F02F5F822FBC
:101C100090E00895CF93DF93EC018885998597FF35
:101C200009C0E881F9810680F781E02DCE01099590
:101C30009987888788859985DF91CF910895FC01E0
:101C40002085318537FD05C08FEF9FEF9187808715
:101C500022C02FB7F89480918004882369F083E034
:101C60008093E9009BE68091E80085FD09C082FF32
:101C700003C09093E800F7CF2FBF2FEF3FEF0CC0CA
:101C80009091F1008091E80085FD03C08BE6809380
:101C9000E8002FBF292F30E0C9010895FC01809191
:101CA0008004882371F09FB7F89483E08093E90063
:101CB0002BE602C02093E8008091E80085FDFACF72
:101CC0009FBF8FEF9FEF9187808708956F927F92DC
:101CD0008F929F92AF92BF92CF92DF92EF92FF923C
:101CE0000F931F93CF93DF933C018B01809180046E
:101CF000882329F481E0D30112968C9311C03FB759
:101D0000F89484E08093E90080917204882369F05C
:101D10008091E80085FD07C03FBF81E0E3018A8331
:101D200088249924DAC0109272048824992474E0DB
:101D3000A72E60E4B62E21EFE22EF12C9AE3C92EF5
:101D400083E0D82EC5C09091E400915F8091E800B7
:101D500085FD19C03FBF8091E400891731F481E00F
:101D600080937204F3018283B8C080918004882339
:101D700029F481E0D30112968C93AFC03FB7F89459
:101D8000A092E900E3CF8091F2002B2D281B822F37
:101D900090E04817590708F4242F622F70E0E801FB
:101DA000D701E0E4E21BE03428F4EE0FFF27E55210
:101DB000F14F099480C089918C9389918C9389917A
:101DC0008C9389918C9389918C9389918C9389912F
:101DD0008C9389918C9389918C9389918C9389911F
:101DE0008C9389918C9389918C9389918C9389910F
:101DF0008C9389918C9389918C9389918C938991FF
:101E00008C9389918C9389918C9389918C938991EE
:101E10008C9389918C9389918C9389918C938991DE
:101E20008C9389918C9389918C9389918C938991CE
:101E30008C9389918C9389918C9389918C938991BE
:101E40008C9389918C9389918C9389918C938991AE
:101E50008C9389918C9389918C9389918C9389919E
:101E60008C9389918C9389918C9389918C9389918E
:101E70008C9389918C9389918C9389918C9389917E
:101E80008C9389918C9389918C9389918C9389916E
:101E90008C9389918C9389918C9389918C9389915E
:101EA0008C9389918C9389918C9389918C9389914E
:101EB0008C9389918C938E018091E80085FD02C0FE
:101EC000C092E800461B570B860E971ED0927004F6
:101ED0004115510509F037CF3FBFC401DF91CF91C4
:101EE0001F910F91FF90EF90DF90CF90BF90AF9038
:101EF0009F908F907F906F900895E4E7F4E08AE0E0
:101F0000DF011D928A95E9F71092760488EE93E03E
:101F1000A0E0B0E08093770490937804A0937904D4
:101F2000B0937A0410927B0484E393E09093750459
:101F30008093740408952FEF3FEFFC0131872087D1
:101F400097DA0FB6F89480916B0490916C04A0918D
:101F50006D04B0916E040FBEAC01809180048823A3
:101F600029F068EC70E080E090E02BCA8091810459
:101F7000882309F10FB6F89480916B0490916C045A
:101F8000A0916D04B0916E040FBE9C0110C00FB6FD
:101F9000F89480916B0490916C04A0916D04B091C1
:101FA0006E040FBE821B930B8B3F9105A8F48091AA
:101FB0008104882361F70FB6F89480916B049091A7
:101FC0006C04A0916D04B0916E040FBE841B950B40
:101FD000855C994008F4C1CF08955058BB27AA27C3
:101FE0000ED070C161D130F066D120F031F49F3F46
:101FF00011F41EF456C10EF4E095E7FB4CC1E92F35
:1020000072D180F3BA17620773078407950718F037
:1020100071F49EF58AC10EF4E0950B2EBA2FA02D17
:102020000B01B90190010C01CA01A0011124FF2785
:10203000591B99F0593F50F4503E68F11A16F04080
:10204000A22F232F342F4427585FF3CF469537957F
:102050002795A795F0405395C9F77EF41F16BA0B44
:10206000620B730B840BBAF09150A1F0FF0FBB1FF2
:10207000661F771F881FC2F70EC0BA0F621F731F3B
:10208000841F48F4879577956795B795F7959E3F98
:1020900008F0B3CF9395880F08F09927EE0F979526
:1020A00087950895D4D008F481E008950CD00AC132
:1020B00002D140F0F9D030F021F45F3F19F0EBC0CD
:1020C000511134C1EEC00FD198F39923C9F35523B0
:1020D000B1F3951B550BBB27AA276217730784071B
:1020E00038F09F5F5F4F220F331F441FAA1FA9F3D1
:1020F00033D00E2E3AF0E0E830D091505040E695C3
:10210000001CCAF729D0FE2F27D0660F771F881F23
:10211000BB1F261737074807AB07B0E809F0BB0B12
:10212000802DBF01FF2793585F4F2AF09E3F510536
:1021300068F0B1C0FBC05F3FECF3983EDCF38695DE
:1021400077956795B795F7959F5FC9F7880F911DAC
:102150009695879597F90895E1E0660F771F881F98
:10216000BB1F621773078407BA0720F0621B730B4B
:10217000840BBA0BEE1F88F7E0950895BCD088F069
:102180009F5790F0B92F9927B751A0F0D1F0660F63
:10219000771F881F991F1AF0BA95C9F712C0B1307E
:1021A00081F0C3D0B1E00895C0C0672F782F882791
:1021B000B85F39F0B93FCCF3869577956795B395BD
:1021C000D9F73EF490958095709561957F4F8F4F2C
:1021D0009F4F0895E89409C097FB3EF49095809531
:1021E000709561957F4F8F4F9F4F9923A9F0F92FDD
:1021F00096E9BB279395F695879577956795B7955B
:10220000F111F8CFFAF4BB0F11F460FF1BC06F5F40
:102210007F4F8F4F9F4F16C0882311F096E911C052
:10222000772321F09EE8872F762F05C0662371F073
:1022300096E8862F70E060E02AF09A95660F771F87
:10224000881FDAF7880F9695879597F90895990F63
:102250000008550FAA0BE0E8FEEF16161706E80770
:10226000F907C0F012161306E407F50798F0621B91
:10227000730B840B950B39F40A2661F0232B242B66
:10228000252B21F408950A2609F4A140A6958FEF85
:10229000811D811D089597F99F6780E870E060E0D7
:1022A00008959FEF80EC089500240A9416161706EF
:1022B00018060906089500240A9412161306140637
:1022C00005060895092E0394000C11F4882352F09A
:1022D000BB0F40F4BF2B11F460FF04C06F5F7F4F52
:1022E0008F4F9F4F089557FD9058440F551F59F039
:1022F0005F3F71F04795880F97FB991F61F09F3FF3
:1023000079F087950895121613061406551FF2CF1B
:102310004695F1DF08C0161617061806991FF1CF6B
:1023200086957105610508940895E894BB27662792
:102330007727CB0197F908958ADF08F48FEF089586
:102340000BD0C0CFB1DF28F0B6DF18F0952309F02D
:10235000A2CFA7CF1124EACFC6DFA0F3959FD1F378
:10236000950F50E0551F629FF001729FBB27F00D43
:10237000B11D639FAA27F00DB11DAA1F649F662798
:10238000B00DA11D661F829F2227B00DA11D621FE7
:10239000739FB00DA11D621F839FA00D611D221FA1
:1023A000749F3327A00D611D231F849F600D211D85
:1023B000822F762F6A2F11249F5750408AF0E1F028
:1023C00088234AF0EE0FFF1FBB1F661F771F881F71
:1023D00091505040A9F79E3F510570F05CCFA6CFB9
:1023E0005F3FECF3983EDCF3869577956795B7955C
:1023F000F795E7959F5FC1F7FE2B880F911D969586
:10240000879597F9089597FB092E07260AD077FD3F
:1024100004D02ED006D000201AF4709561957F4F1D
:102420000895F6F7909581959F4F0895A1E21A2E91
:10243000AA1BBB1BFD010DC0AA1FBB1FEE1FFF1F68
:10244000A217B307E407F50720F0A21BB30BE40BB8
:10245000F50B661F771F881F991F1A9469F76095FF
:102460007095809590959B01AC01BD01CF010895B9
:10247000AA1BBB1B51E107C0AA1FBB1FA617B707AA
:1024800010F0A61BB70B881F991F5A95A9F78095C6
:102490009095BC01CD010895EE0FFF1F0590F491BA
:1024A000E02D099491110EC0803219F089508550A9
:1024B000D0F708959111089581568A5108F48052F9
:1024C00085580895992788270895629FD001739FA2
:1024D000F001829FE00DF11D649FE00DF11D929FC0
:1024E000F00D839FF00D749FF00D659FF00D9927FF
:1024F000729FB00DE11DF91F639FB00DE11DF91F23
:10250000BD01CF01112408952F923F924F925F9207
:102510006F927F928F929F92AF92BF92CF92DF92F3
:10252000EF92FF920F931F93CF93DF93CDB7DEB758
:10253000CA1BDB0B0FB6F894DEBF0FBECDBF0994EC
:102540002A88398848885F846E847D848C849B8443
:10255000AA84B984C884DF80EE80FD800C811B8151
:10256000AA81B981CE0FD11D0FB6F894DEBF0FBE80
:0A257000CDBFED010895F894FFCFF0
:10257A004572726F723A2076616C7565206F757458
:10258A00206F662072616E6765202D2073656E6408
:10259A0020627974657320696E646976696475610D
:1025AA006C6C7920736570617261746564206279FC
:1025BA0020737061636573202870726F626C656D39
:1025CA002076616C7565203D2000202900576172D4
:1025DA006E696E673A20796F752073656E74206D27
:1025EA006F7265206279746573207468616E2074F5
:1025FA00686572652061726520626F61726473003A
:10260A005761726E696E673A20796F752073656ECD
:10261A0064206665776572206279746573207468D0
:10262A00616E2074686572652061726520626F61EF
:10263A00726473006C6F6F6B20696E20746865201A
:10264A00736B6574636820666F722068656C7021AD
:10265A000056616C7665732073657420746F3A0056
:10266A0020004F4B3A2053657420757020666F72B4
:10267A0020002076616C766573206F6E20002062E0
:10268A006F61726473004F4B3A2053657420766110
:10269A006C76652074696D6520746F2000206D73F7
:1026AA00004F4B3A206772616469656E7420666FE9
:1026BA007277617264004F4B3A2067726164696590
:1026CA006E742072657665727365004F4B3A206DA1
:1026DA006978696E67004F4B3A20616C6C207661AD
:1026EA006C76657320616374697661746564004F02
:1026FA004B3A20616C6C2076616C76657320696E4A
:10270A00616374697661746564004F4B3A204927A6
:10271A006C6C20626520636861747479004F4B3A6F
:10272A002000756E7265636F676E697A65642063EF
:10273A006F6D6D616E64004572726F723A20636FDD
:10274A00756C64206E6F742070617273652F657882
:10275A00656375746520796F757220636F6D6D613D
:10276A006E643A2000453A2053657269616C2042D2
:10277A007566666572204F76657272756E3A2000CC
:10278A000000704105002800015500E1000000002A
:10279A0008010203040501000800400000010004CA
:1027AA0000000000CE0D660EE60D1F0E0A0E4E0E3C
:00000001FF
